:100000000C9462000C948A000C948A000C948A0070
:100010000C948A000C94B5080C948A000C948A0005
:100020000C948A000C948A000C948A000C948A0028
:100030000C948A000C948A000C948A000C948A0018
:100040000C946B080C948A000C9439080C941308D7
:100050000C948A000C948A000C948A000C948A00F8
:100060000C9423090C948A0000000000240027004F
:100070002A0000000000250028002B0000000000DE
:1000800023002600290004040404040404040202DA
:100090000202020203030303030301020408102007
:1000A0004080010204081020010204081020000012
:1000B0000008000201000003040700000000000027
:1000C0000000420A11241FBECFEFD8E0DEBFCDBF33
:1000D00011E0A0E0B1E0EEE0F0E202C005900D9288
:1000E000A03AB107D9F723E0A0EAB1E001C01D9220
:1000F000AD38B207E1F710E0C2E6D0E004C02197C6
:10010000FE010E94FF0FC136D107C9F70E948F0A76
:100110000C9405100C940000E0913F02F091400215
:10012000309729F010924B0210924A0209940895D8
:10013000CF93DF93AC01E0914102F09142023097FE
:10014000F1F090914D0280914C029817C0F090E030
:10015000292F30E02617370754F4D901AB55BE4F8D
:10016000240F351FE90128812C939F5FF1CF109256
:100170004D0260934C02CB01DF91CF910994DF9146
:10018000CF9108950895AF92BF92CF92DF92EF92F0
:10019000FF920F931F93CF93DF936C017B018B0131
:1001A000040F151FEB015E01AE18BF08C017D10781
:1001B00059F06991D601ED91FC910190F081E02D0B
:1001C000C6010995892B79F7C501DF91CF911F9160
:1001D0000F91FF90EF90DF90CF90BF90AF90089578
:1001E000FC01538D448D252F30E0842F90E0821B3D
:1001F000930B541710F0CF96089501970895FC01C2
:10020000918D828D981761F0A28DAE0FBF2FB11D19
:100210005D968C91928D9F5F9F73928F90E0089571
:100220008FEF9FEF0895FC01918D828D981731F02B
:10023000828DE80FF11D858D90E008958FEF9FEF7F
:100240000895FC01918D228D892F90E0805C9F4F55
:10025000821B91098F73992708958EE492E00E9482
:10026000210121E0892B09F420E0822F089580E00C
:1002700090E0892B29F00E942D0181110C9400003F
:100280000895FC01A48DA80FB92FB11DA35ABF4F2B
:100290002C91848D90E001968F739927848FA68985
:1002A000B7892C93A089B1898C91837080648C93D9
:1002B000938D848D981306C00288F389E02D808188
:1002C0008F7D80830895EF92FF920F931F93CF93BA
:1002D000DF93EC0181E0888F9B8D8C8D98131AC081
:1002E000E889F989808185FF15C09FB7F894EE8968
:1002F000FF896083E889F9898081837080648083C5
:100300009FBF81E090E0DF91CF911F910F91FF900F
:10031000EF900895F62E0B8D10E00F5F1F4F0F73B7
:100320001127E02E8C8D8E110CC00FB607FCFACF72
:10033000E889F989808185FFF5CFCE010E944101CE
:10034000F1CFEB8DEC0FFD2FF11DE35AFF4FF08243
:100350009FB7F8940B8FEA89FB8980818062CFCFA9
:10036000CF93DF93EC01888D8823B9F0AA89BB89EC
:10037000E889F9898C9185FD03C0808186FD0DC0D7
:100380000FB607FCF7CF8C9185FFF2CF808185FFF8
:10039000EDCFCE010E944101E9CFDF91CF910895C9
:1003A000833081F028F4813099F08230A9F00895EB
:1003B0008730A9F08830C9F08430B1F48091800092
:1003C0008F7D03C0809180008F7780938000089597
:1003D00084B58F7784BD089584B58F7DFBCF8091E0
:1003E000B0008F778093B00008958091B0008F7D2A
:1003F000F9CFCF93DF93282F30E0F901E255FF4F7B
:100400008491F901E656FF4FD491F901EA57FF4F65
:10041000C491CC23A1F081110E94D001EC2FF0E017
:10042000EE0FFF1FE458FF4FA591B491EC91ED231F
:1004300081E090E009F480E0DF91CF91089580E0C1
:1004400090E0FACF1F93CF93DF93282F30E0F9018C
:10045000E255FF4F8491F901E656FF4FD491F9011F
:10046000EA57FF4FC491CC23A9F0162F81110E94A7
:10047000D001EC2FF0E0EE0FFF1FEE58FF4FA591DB
:10048000B4918FB7F894EC91111108C0D095DE2388
:10049000DC938FBFDF91CF911F910895DE2BF8CFB2
:1004A000CF93DF9390E0FC01E656FF4F24918A57EB
:1004B0009F4FFC0184918823D1F090E0880F991F11
:1004C000FC01E859FF4FA591B491FC01EE58FF4F94
:1004D000C591D491623071F49FB7F8943C91822F0A
:1004E000809583238C93E8812E2B28839FBFDF91F7
:1004F000CF9108958FB7F894EC912E2B2C938FBF4A
:10050000F6CFCF93DF93EC0161E089E00E945002C7
:10051000209731F460E089E0DF91CF910C942202C2
:10052000CF3FD10511F461E0F6CFE7EBF0E0E491C5
:10053000E33029F140F4E130B1F0E230D9F0C038D5
:10054000D1058CF7E7CFE73021F1E83051F1E43005
:10055000B1F780918000806280938000D0938B00FF
:10056000C0938A0004C084B5806884BDC7BDDF9194
:10057000CF91089584B5806284BDC8BDF8CF8091C5
:100580008000806880938000D0938900C0938800A9
:10059000EECF8091B00080688093B000C093B3002C
:1005A000E6CF8091B00080628093B000C093B40029
:1005B000DECF2FB7F89460913102709132028091B2
:1005C0003302909134022FBF089585ED8093BC00D3
:1005D0008091BC0084FDFCCF1092490208952091C7
:1005E000E501260F3327331F21323105ECF420912A
:1005F0004902FC0190E080E0243069F082E0089537
:10060000A091E5012191AC014B535E4FA40FB52F92
:10061000B11D2C930196861798F38091E501680F20
:100620006093E50180E0089581E008950895E091E8
:100630004D0280914C02E81730F4F0E0EB55FE4F8C
:10064000808190E008958FEF9FEF089590914D0283
:1006500080914C022FEF3FEF981748F4E92FF0E01C
:10066000EB55FE4F208130E09F5F90934D02C90112
:10067000089580914C0290914D02891B990B089529
:10068000CF93DF93CB01EA01642F0E94EF02CE01EA
:10069000DF91CF910895CF93DF931F92CDB7DEB74F
:1006A000698361E0CE0101960E94EF0281E090E053
:1006B0000F90DF91CF91089590E080E00895FC01C4
:1006C00086AD811104C081E024AD95AD291380E091
:1006D0000895CF92DF92EF92FF920F931F930E94A3
:1006E000D9020091A1011091A2012091A3013091A2
:1006F000A401E0913601F0913701AB01BC01401B30
:10070000510B620B730BCF01B0E0A0E04817590703
:100710006A077B0708F4BBC00E94D9026093A1015D
:100720007093A2018093A3019093A401809134015E
:1007300081608093340182E00E94F90121E0892BDD
:1007400009F020E08091340120FB82F9809334018C
:100750000E94D90220913601309137016B017C0152
:10076000C21AD30AE108F1089701860180918C032F
:10077000882351F080918B0390E001966FE070E048
:100780000E94D70F80938B0380918A0390E0FC0135
:10079000EE0FFF1FEE0FFF1FE25BFC4F0083118384
:1007A0002283338301966FE070E00E94D70F80931D
:1007B0008A0390918B03981303C081E080938C038C
:1007C0008EE493E00E945F039091380180FB91F9E1
:1007D0009093380190918C038091380190FB82F9BD
:1007E0008093380182E00E94F901019709F04FC01F
:1007F000809134018260809334010E94D90220915B
:100800003601309137016B017C01C21AD30AE1082D
:10081000F1089701860180914D03882351F0809162
:100820004C0390E001966FE070E00E94D70F809338
:100830004C0380914B0390E0FC01EE0FFF1FEE0F85
:10084000FF1FE15FFC4F00831183228333830196F6
:100850006FE070E00E94D70F80934B0390914C03A0
:10086000981303C081E080934D038FE093E00E94D2
:100870005F039091410180FB91F990934101909128
:100880004D038091410190FB82F9809341011F91BA
:100890000F91FF90EF90DF90CF900895CF92DF926D
:1008A000EF92FF9282E00E94F90121E0892B09F08A
:1008B00020E08091340120FB82F9809334010E9472
:1008C000D902E0918B0324E0E29FF0011124E25B66
:1008D000FC4FC080D180E280F3806C197D098E09C5
:1008E0009F0960933D0170933E0180933F01909377
:1008F00040010E94D9026B017C018EE493E00E94CA
:100900005F03811175C080918A0390E00E966FE0BD
:1009100070E00E94D70FFC01EE0FFF1FEE0FFF1FCC
:10092000E25BFC4F80819181A281B381C81AD90A10
:10093000EA0AFB0AC0923901D0923A01E0923B01E7
:10094000F0923C010E94D902E0914C0324E0E29F26
:10095000F0011124E15FFC4FC080D180E280F38080
:100960006C197D098E099F096093460170934701B8
:1009700080934801909349010E94D9026B017C0148
:100980008FE093E00E945F03811136C080914B039A
:1009900090E00E966FE070E00E94D70FFC01EE0F22
:1009A000FF1FEE0FFF1FE15FFC4F80819181A2814D
:1009B000B381C81AD90AEA0AFB0AC0924201D0924E
:1009C0004301E0924401F09245018091A0016091C1
:1009D000A00140E250E0481B510970E06F5C7E4F7F
:1009E0008BEE92E0FF90EF90DF90CF900C9440035D
:1009F00080E090E0DC019ACF80E090E0DC01D9CF8C
:100A0000FF920F931F93CF93DF938C018BEE92E0B5
:100A10000E9426038093A001F12C01501109CF2DD3
:100A2000D0E0C017D1079CF58BEE92E00E94260320
:100A30002091A0012C0F3D2F311D2032310528F5CA
:100A4000A091A001E091A001EC0FFD2FF11DEF5C42
:100A5000FE4FAC0FBD2FB11DA050BF4F9C91909584
:100A60002081922390839091A001E091A001EC0F4E
:100A7000FD2FF11DEF5CFE4FC90FD11DC050DF4FA0
:100A8000988198238081892B8083F394C8CF8091AB
:100A9000380180FF3BC010928C0380918B039091B2
:100AA0008A03981741F090E001966FE070E00E9491
:100AB000D70F80938B03E0918B0384E0E89FF001D4
:100AC0001124E25BFC4F80819181A281B3818093EC
:100AD0003D0190933E01A0933F01B093400190915E
:100AE0008C038091380190FB82F9809338018EE469
:100AF00093E00E945F039091380180FB91F99093FD
:100B00003801809138018E7F8093380180914101B6
:100B100080FF3CC010924D0320914C03822F90E047
:100B200030914B03321739F001966FE070E00E946C
:100B3000D70F80934C03E0914C0384E0E89FF001D1
:100B40001124E15FFC4F80819181A281B381809368
:100B5000460190934701A0934801B09349019091B9
:100B60004D038091410190FB82F9809341018FE018
:100B700093E00E945F039091410180FB91F9909373
:100B80004101809141018E7F8093410181E08093FA
:100B90003001DF91CF911F910F91FF9008958F92B7
:100BA0009F92AF92BF92CF92DF92EF92FF920F93FC
:100BB0001F93CF93DF9360914A019091F702C09108
:100BC0004B018091F802C813A9C081E0691301C0EC
:100BD00080E000914C0110914D012091F90230917B
:100BE000FA020217130709F081E020914E013091BB
:100BF0004F014091FB025091FC022417350719F474
:100C0000882309F47EC06093F702C093F802109322
:100C1000FA020093F9023093FC022093FB02D0E029
:100C200070E090E080E00E94DF0E6B017C01BE016D
:100C30000D2E000C880B990B0E94E10E9B01AC015C
:100C4000C701B6010E94370E9B01AC010E94B40D92
:100C50000E94200E0E94B00E6B01709306036093F9
:100C60000503B80190E080E00E94DF0E4B015C01BB
:100C7000B60190E080E00E94DF0E9B01AC01C5014F
:100C8000B4010E94370E6B017C0120E030E0A90125
:100C90000E94AE0F20E030E040E05FE387FD40C0FF
:100CA000C701B6010E94B40D0E94A90E609307030C
:100CB000709308038093090390930A03D0930E0363
:100CC000C0930D030E94D902609301037093020345
:100CD00080930303909304030E94D9026093FD0262
:100CE0007093FE028093FF02909300038091F802BC
:100CF00090E090930E0380930D0310920C031092DA
:100D00000B03DF91CF911F910F91FF90EF90DF9038
:100D1000CF90BF90AF909F908F90089581E059CF72
:100D2000C701B6010E94B30DBFCFFC0101900020A6
:100D3000E9F73197AF01481B590BBC018EE492E0F3
:100D40000C94C3000F931F93CF93DF93CDB7DEB7FF
:100D5000A1970FB6F894DEBF0FBECDBF482F50E06D
:100D600070E060E019A2CE0181968A019B010F70AC
:100D700011272227332724E07695679557954795C5
:100D80002A95D1F70A300CF5005DFC010293CF01E2
:100D9000411551056105710541F710E000E0EF2BA9
:100DA00019F00E9495068C0185E791E00E94950656
:100DB000800F911FA1960FB6F894DEBF0FBECDBF76
:100DC000DF91CF911F910F910895095CDECF0F93B2
:100DD0001F93CF93DF938C01EB010E949D0D8883BD
:100DE000C80101960E949D0D8983CE01DF91CF91AC
:100DF0001F910F910895CF93DF93EB010E949D0DFA
:100E00008883CE01DF91CF910895FF920F931F93B6
:100E1000CF93DF93EC01F62E08811981C8010E945F
:100E20009D0DF81621F06F2DC8010E94A50DCE0171
:100E3000DF91CF911F910F91FF9008950F931F9312
:100E4000CF93DF9300D0CDB7DEB78C018AE090E07E
:100E50009A838983F8016081CE0101960E9405077B
:100E6000C8010F900F90DF91CF911F910F910895BE
:100E70001F93CF93DF9300D0CDB7DEB7BE016E5F77
:100E80007F4F8AE090E00E94FB068A818F3F31F419
:100E900081E08983CE0101960E941E0783E00E94B3
:100EA000F9011EE6892B09F01FE684E00E94F90192
:100EB000892B09F41D7F85E00E94F901892B09F433
:100EC0001B7F86E00E94F901892B09F05DC0177F26
:100ED0001982CE0101960E941E0710935001809145
:100EE000BC008A7B8093BC0060E082E10E94220209
:100EF00060E083E10E94220210924D0210924C02A7
:100F000010924B0210924A021092490281E08093A3
:100F100048021092470261E082E10E94220261E0F1
:100F200083E10E9422028091B9008E7F8093B900F4
:100F30008091B9008D7F8093B90088E48093B800D8
:100F400085E48093BC008CE890E090934602809307
:100F5000450288E990E09093440280934302110F88
:100F60001093BA0080E095E0909342028093410292
:100F70008EE494E09093400280933F020F900F9094
:100F8000DF91CF911F9108951F3609F0A1CF8A817B
:100F9000882309F49DCF8091500198EF980F9037E6
:100FA00008F09BCF182F99CFEF92FF920F931F93CA
:100FB000CF93DF9300D0CDB7DEB78C017B019A834E
:100FC0008983FB016081CE0101960E9405070F5FB6
:100FD0001F4F1A830983F7016181CE0101960E9498
:100FE0000507C7010F900F90DF91CF911F910F91CF
:100FF000FF90EF9008950F931F93CF93DF9300D04E
:10100000CDB7DEB78B019A838983FB016081CE0166
:1010100001960E940507C8010F900F90DF91CF91B4
:101020001F910F9108951F920F920FB60F921124E6
:101030002F933F934F935F936F937F938F939F93E0
:10104000AF93BF93EF93FF938EE492E00E94410130
:10105000FF91EF91BF91AF919F918F917F916F9190
:101060005F914F913F912F910F900FBE0F901F9066
:1010700018951F920F920FB60F9211242F938F93F2
:101080009F93EF93FF93E0915E02F0915F02808166
:10109000E0916402F091650282FD1BC09081809115
:1010A00067028F5F8F7320916802821741F0E09191
:1010B0006702F0E0E25BFD4F958F80936702FF913E
:1010C000EF919F918F912F910F900FBE0F901F90D6
:1010D00018958081F4CF1F920F920FB60F921124B2
:1010E0002F933F938F939F93AF93BF938091310240
:1010F00090913202A0913302B091340230913002CB
:1011000023E0230F2D3758F50196A11DB11D209323
:1011100030028093310290933202A0933302B09355
:10112000340280912C0290912D02A0912E02B09158
:101130002F020196A11DB11D80932C0290932D02C8
:10114000A0932E02B0932F02BF91AF919F918F91E8
:101150003F912F910F900FBE0F901F90189526E88A
:10116000230F0296A11DB11DD2CF1F920F920FB671
:101170000F9211242F933F934F935F936F937F931D
:101180008F939F93AF93BF93CF93EF93FF9399B1B7
:1011900080913702C0913D02C923282F2095C22398
:1011A00020913A028223292F20958223C82B9093E5
:1011B0003702C4FF05C0E0912001F091210109959B
:1011C000C5FF05C0E0912201F09123010995C6FFFA
:1011D00005C0E0912401F09125010995C7FF05C0E4
:1011E000E0912601F09127010995C0FF05C0E0912B
:1011F0002801F09129010995C1FF05C0E0912A015C
:10120000F0912B010995C2FF05C0E0912E01F091EC
:101210002F010995C3FF05C0E0912C01F0912D012C
:101220000995FF91EF91CF91BF91AF919F918F91D0
:101230007F916F915F914F913F912F910F900FBED2
:101240000F901F9018951F920F920FB60F921124B6
:101250002F933F934F935F936F937F938F939F93BE
:10126000AF93BF93EF93FF938091B900887F80364F
:1012700009F44AC0F0F5883209F4A7C018F58031A6
:1012800009F49BC0B8F4882309F4F9C0883009F444
:1012900094C0FF91EF91BF91AF919F918F917F91FA
:1012A0006F915F914F913F912F910F900FBE0F90D3
:1012B0001F901895883109F488C0803251F78093C7
:1012C000080214C0803409F49DC040F48033B9F39F
:1012D0008833F9F68093080285ECB0C0803509F4B4
:1012E00085C0883509F496C0883499F60E94E502D5
:1012F000D0CF883909F48CC038F5883729F050F4FC
:10130000883611F0803729F683E0809349021092E5
:10131000070257C0883809F47BC0803919F080383B
:1013200009F0B7CF80910702803208F071C0E091D8
:10133000070281E08E0F809307028091BB00F0E0EE
:10134000E951FE4F80833DC0803B39F0E0F4803AA4
:1013500009F479C0883A09F09CCF84E0809349026F
:101360001092E6011092E501E0914502F0914602EB
:1013700009958091E50181110FC081E08093E5011D
:101380001092C50109C0803C09F4A6CF883C09F43D
:10139000A3CF883B09F07DCFE091E60181E08E0F7D
:1013A0008093E601F0E0EB53FE4F80818093BB0019
:1013B0009091E6018091E50129C080912B028093F4
:1013C000BB0085EC8093BC0064CF90912A02809191
:1013D0002902981758F5E0912A0281E08E0F809338
:1013E0002A02F0E0E75FFD4F8081E9CFE0912A0219
:1013F00081E08E0F80932A028091BB00F0E0E75FCE
:10140000FD4F808390912A02809129029817C8F29B
:1014100085E8D8CFE0912A0281E08E0F80932A02DE
:101420008091BB00F0E0E75FFD4F80838091480230
:1014300081115CCF81E08093470284EA8093BC00F5
:101440001092490226CF85EC8093BC00109249028D
:1014500080910702803230F4E0910702F0E0E95118
:10146000FE4F10826091070270E0E0914302F0911C
:10147000440287EE91E00995109207020ACF10927C
:10148000080234CFEEE4F2E01382128288EE93E099
:10149000A0E0B0E084839583A683B78325E531E09F
:1014A0003183208325EC30E03587248724EC30E03D
:1014B0003787268720EC30E0318B208B21EC30E021
:1014C000338B228B22EC30E0358B248B26EC30E002
:1014D000378B268B118E128E138E148EEBEEF2E06C
:1014E0001382128284839583A683B78387E691E073
:1014F00091838083EEE4F3E014AE15AE16AEEFE018
:10150000F3E014AE15AE16AEE7EFF2E010821182F2
:101510001382128215821482158A148A0895CF9339
:10152000DF9300D01F92CDB7DEB7789484B5826088
:1015300084BD84B5816084BD85B5826085BD85B577
:10154000816085BD80916E00816080936E001092F5
:101550008100809181008260809381008091810070
:101560008160809381008091800081608093800001
:101570008091B10084608093B1008091B00081605F
:101580008093B00080917A00846080937A0080918B
:101590007A00826080937A0080917A0081608093E3
:1015A0007A0080917A00806880937A001092C1005E
:1015B00062E083E00E94500262E084E00E945002F8
:1015C00062E085E00E94500262E086E00E945002E4
:1015D00061E089E00E94500290E080E00E94810278
:1015E00061E088E00E94500260E088E00E942202F0
:1015F00062E082E00E94500262E087E00E945002B6
:1016000010927A0080E685BF80E485BF83B7817F32
:1016100083BF83B7816083BF10E000E0EE24EA94CB
:10162000F12CFA82E982BE016F5F7F4FC8010E94F0
:10163000D4070F5F1F4F0436110599F7E0915E0242
:10164000F0915F0282E08083E0915A02F0915B02A8
:101650001082E0915C02F0915D0280E18083109243
:101660006602E0916202F091630286E08083E0917D
:101670006002F0916102808180618083E09160026C
:10168000F0916102808188608083E0916002F09136
:101690006102808180688083E0916002F091610244
:1016A00080818F7D808388E791E00E94950685E7A1
:1016B00091E00E94950685E891E00E949506809150
:1016C00050010E94A20681E991E00E949506809156
:1016D00031010E94A20660E571E090E080E00E9486
:1016E000FB06809150018F3F49F48FE680935001B3
:1016F00060E571E090E080E00E94FB07809150017E
:101700008850803748F08FE68093500160E571E0A3
:1017100090E080E00E94FB0765E371E081E090E0EB
:101720000E94FB06809135018F3F49F483E080934E
:10173000350165E371E081E090E00E94FB076BE416
:1017400071E083E090E00E94FB0680914B018F3FA7
:1017500041F410924B016BE471E083E090E00E9451
:10176000FB076CE471E084E090E00E94E706809162
:101770004C0190914D01019651F410924D0110923F
:101780004C016CE471E084E090E00E94D4076EE4C8
:1017900071E086E090E00E94E70680914E01909112
:1017A0004F01019651F410924F0110924E016EE4D8
:1017B00071E084E090E00E94D40766E371E088E085
:1017C00090E00E94E70680913601909137010196E2
:1017D00061F48AE090E0909337018093360166E3EC
:1017E00071E088E090E00E94D4076AE471E082E052
:1017F00090E00E94FB0680914C0190914D01892B55
:1018000009F4C2C090E080E00E9481028FEF8093D3
:101810004A0181E080934B0184EF91E090934D0168
:1018200080934C0190934F0180934E010E94CF050D
:1018300089E693E090932F0180932E0180913D02E1
:10184000846080933D0280913A02846080933A02E2
:1018500089B18093370280916D00846080936D0020
:10186000809168008460809368000E9438078091AE
:10187000500180933E0261E088E00E94220200E075
:1018800010E0EE24EA94F12C8091340182FF04C030
:101890008091350181FD7CC08091340181FF04C0BD
:1018A0008091350180FD74C062E087E00E945002A3
:1018B00080913001882309F444C080915001885000
:1018C000BE016D5F7F4F90E0803708F06AC080E016
:1018D0000E94FB06809150019B81891751F08983FA
:1018E000BE016F5F7F4F90E080E00E94FB070E9487
:1018F000380765E371E081E090E00E94FB076AE44D
:1019000071E082E090E00E94FB076BE471E083E00D
:1019100090E00E94FB076CE471E084E090E00E949C
:10192000D4076EE471E086E090E00E94D40766E39D
:1019300071E088E090E00E94D4070E94CF051092E9
:1019400030019091500180913E02981751F08091A2
:10195000500180933E0281E08983CE0101960E946E
:101960001E0783B7816083BF889583B78E7F83BF4F
:101970008091F9029091FA02892BB9F48091F702D3
:1019800090E00E94810289C080914A0190E03CCFA2
:1019900061E087E00E94500260E087E00E9422023E
:1019A00087CF80E00E94FB06A4CF0E94D9028090DE
:1019B000010390900203A0900303B0900403AB01D5
:1019C000BC01481959096A097B098091F902909173
:1019D000FA02B0E0A0E084179507A607B70708F45D
:1019E00068C00E94D9028090FD029090FE02A090F3
:1019F000FF02B0900003681979098A099B09809059
:101A0000070390900803A0900903B0900A0368159B
:101A100079058A059B0508F440C020910D0330919B
:101A20000E0380910B0390910C03820F931F9093F0
:101A30000C0380930B034091F7025091F802451B71
:101A4000550B481759073CF43195219531093093CE
:101A50000E0320930D0397FF04C010920C03109205
:101A60000B0380910B0390910C038F3F910529F09C
:101A700024F0F0920C03E0920B0380910B03909101
:101A80000C030E9481020E94D9026093FD027093B0
:101A9000FE028093FF02909300030115110509F4E3
:101AA000F3CE0E942D01882309F4EECE0E9400009F
:101AB000EBCE0E94D9028090010390900203A09087
:101AC0000303B0900403AB01BC01481959096A092A
:101AD0007B098091F9029091FA022091FB023091EA
:101AE000FC02820F931FB0E0A0E084179507A607C1
:101AF000B70718F090E080E044CF0E94D9026093CD
:101B000001037093020380930303909304030E94E4
:101B1000D9026093FD027093FE028093FF029093BE
:101B200000038091F80290E090930E0380930D03E0
:101B300010920C0310920B03B0CFF999FECF92BD17
:101B400081BDF89A992780B50895262FF999FECF7F
:101B50001FBA92BD81BD20BD0FB6F894FA9AF99ACA
:101B60000FBE019608955058BB27AA270E94CB0D9F
:101B70000C945C0F0E944E0F38F00E94550F20F01D
:101B800039F49F3F19F426F40C944B0F0EF4E095B2
:101B9000E7FB0C941C0FE92F0E946D0F58F3BA1746
:101BA000620773078407950720F079F4A6F50C9473
:101BB000A70F0EF4E0950B2EBA2FA02D0B01B90143
:101BC00090010C01CA01A0011124FF27591B99F0B3
:101BD000593F50F4503E68F11A16F040A22F232FBF
:101BE000342F4427585FF3CF469537952795A7950F
:101BF000F0405395C9F77EF41F16BA0B620B730BB6
:101C0000840BBAF09150A1F0FF0FBB1F661F771F26
:101C1000881FC2F70EC0BA0F621F731F841F48F4DB
:101C2000879577956795B795F7959E3F08F0B0CF64
:101C30009395880F08F09927EE0F9795879508954B
:101C40000E948F0F90F09F3748F4911116F40C9476
:101C5000A80F60E070E080E89FE3089526F01B166F
:101C6000611D711D811D0C94220F0C943D0F0E946B
:101C70004B0E0C945C0F0E94550F58F00E944E0FB3
:101C800040F029F45F3F29F00C941C0F51110C9483
:101C9000A80F0C944B0F0E946D0F68F39923B1F3BA
:101CA000552391F3951B550BBB27AA276217730782
:101CB000840738F09F5F5F4F220F331F441FAA1F16
:101CC000A9F335D00E2E3AF0E0E832D091505040D2
:101CD000E695001CCAF72BD0FE2F29D0660F771F80
:101CE000881FBB1F261737074807AB07B0E809F066
:101CF000BB0B802DBF01FF2793585F4F3AF09E3FEB
:101D0000510578F00C941C0F0C94A80F5F3FE4F37E
:101D1000983ED4F3869577956795B795F7959F5F2D
:101D2000C9F7880F911D9695879597F90895E1E079
:101D3000660F771F881FBB1F621773078407BA07D8
:101D400020F0621B730B840BBA0BEE1F88F7E09533
:101D500008950E94B00E6894B1110C94A80F0895D4
:101D60000E94750F88F09F5798F0B92F9927B751A7
:101D7000B0F0E1F0660F771F881F991F1AF0BA952F
:101D8000C9F714C0B13091F00E94A70FB1E00895D7
:101D90000C94A70F672F782F8827B85F39F0B93FC9
:101DA000CCF3869577956795B395D9F73EF49095E2
:101DB0008095709561957F4F8F4F9F4F0895E89460
:101DC00009C097FB3EF490958095709561957F4F83
:101DD0008F4F9F4F9923A9F0F92F96E9BB27939531
:101DE000F695879577956795B795F111F8CFFAF441
:101DF000BB0F11F460FF1BC06F5F7F4F8F4F9F4F72
:101E000016C0882311F096E911C0772321F09EE8CF
:101E1000872F762F05C0662371F096E8862F70E035
:101E200060E02AF09A95660F771F881FDAF7880F0F
:101E30009695879597F9089597F99F6780E870E0E0
:101E400060E00895882371F4772321F09850872B60
:101E5000762F07C0662311F499270DC09051862B69
:101E600070E060E02AF09A95660F771F881FDAF716
:101E7000880F9695879597F908959F3F31F0915077
:101E800020F4879577956795B795880F911D96955E
:101E9000879597F908959FEF80EC089500240A94A0
:101EA0001616170618060906089500240A94121635
:101EB0001306140605060895092E0394000C11F468
:101EC000882352F0BB0F40F4BF2B11F460FF04C015
:101ED0006F5F7F4F8F4F9F4F089557FD9058440F6E
:101EE000551F59F05F3F71F04795880F97FB991F79
:101EF00061F09F3F79F08795089512161306140636
:101F0000551FF2CF4695F1DF08C0161617061806C2
:101F1000991FF1CF869571056105089408950E9477
:101F2000750FA0F0BEE7B91788F4BB279F3860F49F
:101F30001616B11D672F782F8827985FF7CF8695E3
:101F400077956795B11D93959639C8F30895E894F0
:101F5000BB2766277727CB0197F908950E94B30F17
:101F600008F48FEF0895990F0008550FAA0BE0E8C9
:101F7000FEEF16161706E807F907C0F0121613064B
:101F8000E407F50798F0621B730B840B950B39F48B
:101F90000A2661F0232B242B252B21F408950A26F1
:101FA00009F4A140A6958FEF811D811D089597FB2F
:101FB000072E16F4009407D077FD09D00E94EB0F8E
:101FC00007FC05D03EF4909581959F4F089570953C
:101FD00061957F4F0895AA1BBB1B51E107C0AA1F43
:101FE000BB1FA617B70710F0A61BB70B881F991FBA
:101FF0005A95A9F780959095BC01CD010895EE0FF3
:0E200000FF1F0590F491E02D0994F894FFCF96
:10200E000000000703FFFF040000000000000000B6
:10201E00040000000000000000FFFFFFFFFFFFFFB5
:10202E00C200C200C200C200C200C200C200C20092
:10203E00015D020100030A00020000000000000022
:10204E00000200000000000000000001000000007F
:10205E006F000000006301C300F000B0012101FF1A
:10206E00001301000000004B0340035C031603390C
:10207E0003260317030D0A00517769696320427521
:10208E0074746F6E00416464726573733A203078B5
:10209E00004465766963652049443A203078000033
:107E0000112484B714BE81FFF0D085E080938100F7
:107E100082E08093C00088E18093C10086E0809377
:107E2000C20080E18093C4008EE0C9D0259A86E02C
:107E300020E33CEF91E0309385002093840096BBD3
:107E4000B09BFECF1D9AA8958150A9F7CC24DD24C4
:107E500088248394B5E0AB2EA1E19A2EF3E0BF2EE7
:107E6000A2D0813461F49FD0082FAFD0023811F036
:107E7000013811F484E001C083E08DD089C08234E0
:107E800011F484E103C0853419F485E0A6D080C0E4
:107E9000853579F488D0E82EFF2485D0082F10E0AE
:107EA000102F00270E291F29000F111F8ED06801E7
:107EB0006FC0863521F484E090D080E0DECF843638
:107EC00009F040C070D06FD0082F6DD080E0C81688
:107ED00080E7D80618F4F601B7BEE895C0E0D1E017
:107EE00062D089930C17E1F7F0E0CF16F0E7DF06D8
:107EF00018F0F601B7BEE89568D007B600FCFDCFD4
:107F0000A601A0E0B1E02C9130E011968C91119780
:107F100090E0982F8827822B932B1296FA010C0160
:107F200087BEE89511244E5F5F4FF1E0A038BF0790
:107F300051F7F601A7BEE89507B600FCFDCF97BE46
:107F4000E89526C08437B1F42ED02DD0F82E2BD052
:107F50003CD0F601EF2C8F010F5F1F4F84911BD097
:107F6000EA94F801C1F70894C11CD11CFA94CF0C13
:107F7000D11C0EC0853739F428D08EE10CD085E9AC
:107F80000AD08FE07ACF813511F488E018D01DD067
:107F900080E101D065CF982F8091C00085FFFCCF94
:107FA0009093C60008958091C00087FFFCCF809118
:107FB000C00084FD01C0A8958091C6000895E0E648
:107FC000F0E098E1908380830895EDDF803219F02E
:107FD00088E0F5DFFFCF84E1DECF1F93182FE3DFCA
:107FE0001150E9F7F2DF1F91089580E0E8DFEE27F6
:047FF000FF270994CA
:027FFE00040479
:0400000300007E007B
:00000001FF
