:100000002CC050C04FC0D9C54DC04CC04BC04AC019
:1000100049C048C047C087C545C044C043C0D6C6D4
:100020001EC600003A00370000003B003800000008
:100030003900360001010101010101010202020241
:1000400001020408102040800402010800000000A2
:1000500000040302010000006A0911241FBECFE55D
:10006000D2E0DEBFCDBF10E0A0E6B0E0E6E9F7E108
:1000700002C005900D92AA3AB107D9F721E0AAEA89
:10008000B0E001C01D92A138B207E1F710E0CDE267
:10009000D0E003C02197FE0176DBCC32D107D1F747
:1000A000DCD677CBADCF80918001882339F02091C9
:1000B0007F0182131CC08FEF9FEF089590917E0106
:1000C00080917D01891B8F70B1F390917E018091A9
:1000D0007D019817E1F3E0917E01EF5FEF70E0930F
:1000E0007E01F0E0E655FF4F808190E00895E22F19
:1000F000F0E0E655FF4F808190E02F5F20937F0175
:1001000008950895813021F480B78F7780BF0895D6
:10011000823019F480B78F7DF9CF833021F48FB509
:100120008F778FBD08958430E9F78FB58F7DF9CF34
:10013000CF93DF93282F30E0F901E45BFF4F8491E8
:10014000F901E05CFF4FD491F901EC5CFF4FC491E1
:10015000CC2399F08111D6DFEC2FF0E0EE0FFF1FDA
:10016000E25DFF4FA591B491EC91ED2381E090E029
:1001700009F480E0DF91CF91089580E090E0FACF1C
:100180001F93CF93DF93282F30E0F901E45BFF4FFB
:100190008491F901E05CFF4FD491F901EC5CFF4FD1
:1001A000C491CC23A1F0162F8111ACDFEC2FF0E02D
:1001B000EE0FFF1FE85DFF4FA591B4918FB71111AE
:1001C0000AC0F894EC91D095DE23DC938FBFDF91C9
:1001D000CF911F910895F894EC91DE2BF6CFCF9339
:1001E000DF9390E0FC01E05CFF4F24918C5C9F4F1B
:1001F000FC0184918823C9F090E0880F991FFC01CD
:10020000EE5DFF4FA591B491FC01E85DFF4FC591F4
:10021000D49161110DC09FB7F8948C9120958223E1
:100220008C938881282328839FBFDF91CF910895E5
:10023000623051F49FB7F8943C91822F80958323CC
:100240008C93E8812E2BEFCF8FB7F894EC912E2B67
:100250002C938FBFEACFCF93DF93EC0161E087E06F
:10026000BEDF1C161D062CF060E087E0DF91CF9109
:1002700087CFCF3FD10514F061E0F7CFE3E5F0E0A1
:10028000E491E13039F480B7806880BFC6BFDF9168
:10029000CF910895E23029F480B7806280BFCCBF4F
:1002A000F6CFE33031F48FB580688FBDDBBDCABDBA
:1002B000EECFE43031F48FB580628FBDD9BDC8BDBB
:1002C000E6CFC038D105C4F6CFCF2FB7F8946091F0
:1002D00053017091540180915501909156012FBFA7
:1002E0000895FC0186AD811104C081E024AD95AD77
:1002F000291380E00895CF92DF92EF92FF920F933F
:100300001F93E3DF0091CB001091CC002091CD0032
:100310003091CE00E0918E00F0918F00AB01BC01D6
:10032000401B510B620B730BCF01B0E0A0E04817EC
:1003300059076A077B0708F4B0C0C7DF6093CB009A
:100340007093CC008093CD009093CE0080918C0070
:10035000816080938C0088E0EBDE21E0892B09F03E
:1003600020E080918C0020FB82F980938C00ADDF2F
:1003700020918E0030918F006B017C01C21AD30A4C
:10038000E108F1089701860180914C01882349F02A
:1003900080914B0190E001966FE070E0CDD98093A1
:1003A0004B0180914A0190E0FC01EE0FFF1FEE0F20
:1003B000FF1FE25FFE4F0083118322833383019688
:1003C0006FE070E0B9D980934A0190914B01981386
:1003D00003C081E080934C018EE091E082DF909138
:1003E000900080FB91F99093900090914C01809146
:1003F000900090FB82F98093900088E099DE01974D
:1004000009F04BC080918C00826080938C005DDF8E
:1004100020918E0030918F006B017C01C21AD30AAB
:10042000E108F1089701860180910D01882349F0C8
:1004300080910C0190E001966FE070E07DD980938F
:100440000C0180910B0190E0FC01EE0FFF1FEE0FFD
:10045000FF1FE153FF4F00831183228333830196F3
:100460006FE070E069D980930B0190910C019813B3
:1004700003C081E080930D018FEC90E032DF90911A
:10048000990080FB91F99093990090910D018091D2
:10049000990090FB82F9809399001F910F91FF9032
:1004A000EF90DF90CF900895CF92DF92EF92FF927E
:1004B00088E03EDE21E0892B09F020E080918C006D
:1004C00020FB82F980938C0000DFE0914B01F0E08B
:1004D000EE0FFF1FEE0FFF1FE25FFE4FC080D180C7
:1004E000E280F3806C197D098E099F096093950065
:1004F000709396008093970090939800E6DE6B01CE
:100500007C018EE091E0EDDE81118CC080914A018A
:1005100090E00E966FE070E00FD9FC01EE0FFF1F28
:10052000EE0FFF1FE25FFE4F80819181A281B381B8
:10053000C81AD90AEA0AFB0AC0929100D092920026
:10054000E0929300F0929400C0DEE0910C01F0E0A4
:10055000EE0FFF1FEE0FFF1FE153FF4FC080D18052
:10056000E280F3806C197D098E099F0960939E00DB
:1005700070939F008093A0009093A100A6DE6B0172
:100580007C018FEC90E0ADDE811150C080910B01B9
:1005900090E00E966FE070E0CFD8FC01EE0FFF1FE9
:1005A000EE0FFF1FE153FF4F80819181A281B38144
:1005B000C81AD90AEA0AFB0AC0929A00D0929B0094
:1005C000E0929C00F0929D008091CA0040E250E0D1
:1005D000481B51096091CA0070E030E020E04217EA
:1005E000530741F190915E0180915F019F5F891BEC
:1005F0008F70A9F080915E018F5F8F7090915F0185
:100600008917E1F3E82FF0E0E654FF4FDB01A20F7A
:10061000B31FA757BF4F9C91908380935E012F5FBC
:100620003F4FDDCF80E090E0DC0182CF80E090E0C2
:10063000DC01BECFFF90EF90DF90CF900895FF9246
:100640000F931F93CF93DF938C012DDD8093CA000E
:10065000F12C01501109CF2DD0E0C017D10784F53E
:1006600022DD2091CA002C0F3D2F311D2032310593
:1006700028F5A091CA00E091CA00EC0FFD2FF11DF2
:10068000E757FF4FAC0FBD2FB11DA05ABF4F9C9134
:1006900090952081922390839091CA00E091CA00A6
:1006A000EC0FFD2FF11DE757FF4FC90FD11DC05AA9
:1006B000DF4F988198238081892B8083F394CBCF5F
:1006C0008091900080FF3CC08EE091E00ADE909126
:1006D0004B0181110AC0892F90E001966FE070E014
:1006E0002BD880934B0110924C01E0914B01F0E02C
:1006F000EE0FFF1FEE0FFF1FE25FFE4F8081918123
:10070000A281B3818093950090939600A093970067
:10071000B093980090914C018091900090FB82F9E9
:10072000809390008EE091E0DCDD9091900080FB62
:1007300091F990939000809190008E7F809390002B
:100740008091990080FF3CC08FEC90E0CADD9091D1
:100750000C0181110AC0892F90E001966FE070E0D2
:10076000EBD780930C0110920D01E0910C01F0E0A9
:10077000EE0FFF1FEE0FFF1FE153FF4F80819181AE
:10078000A281B38180939E0090939F00A093A000CC
:10079000B093A10090910D018091990090FB82F996
:1007A000809399008FEC90E09CDD9091990080FB04
:1007B00091F990939900809199008E7F8093990090
:1007C00081E080938800DF91CF911F910F91FF907E
:1007D00008958F929F92AF92BF92CF92DF92EF9245
:1007E000FF920F931F93CF93DF936091A20090919C
:1007F0006501C091A30080916601C8139BC081E090
:10080000691301C080E00091A4001091A50020911F
:100810006701309168010217130709F081E0209108
:10082000A6003091A7004091690150916A012417F8
:10083000350719F4882309F470C060936501C093EB
:100840006601109368010093670130936A01209359
:100850006901D0E070E090E080E078D66B017C0127
:10086000BE010D2E000C880B990B72D69B01AC01BA
:10087000C701B601D2D59B01AC0158D5BBD53AD63C
:100880006B017093740160937301B80190E080E094
:100890005DD64B015C01B60190E080E057D69B012C
:1008A000AC01C501B401B9D56B017C0120E030E099
:1008B000A9011AD720E030E040E05FE387FD3CC0AB
:1008C000C701B60133D511D66093750170937601D7
:1008D0008093770190937801D0937C01C0937B0142
:1008E000F4DC60936F0170937001809371019093B9
:1008F0007201EBDC60936B0170936C0180936D016E
:1009000090936E018091660190E090937C018093BA
:100910007B0110927A0110927901DF91CF911F91A2
:100920000F91FF90EF90DF90CF90BF90AF909F908E
:100930008F90089581E067CFC701B601F6D4C3CF89
:100940000F931F93CF93DF938C01EB01D8D488834F
:10095000C8010196D4D48983CE01DF91CF911F9134
:100960000F910895CF93DF93EB01C9D48883CE0113
:10097000DF91CF910895FF920F931F93CF93DF9351
:10098000EC01F62E08811981C801B9D4F81619F0C6
:100990006F2DC801BCD4CE01DF91CF911F910F9173
:1009A000FF9008950F931F93CF93DF9300D0CDB79F
:1009B000DEB78C018AE090E09A838983F801608138
:1009C000CE010196D8DFC8010F900F90DF91CF9133
:1009D0001F910F9108951F93CF93DF9300D0CDB750
:1009E000DEB7BE016E5F7F4F8AE090E0BBDF8A8199
:1009F0008F3F29F481E08983CE010196D3DF89E01E
:100A000097DB1EE6892B09F01FE68AE091DB892B34
:100A100009F41D7F81E08CDB892B09F41B7F82E0C8
:100A200087DB892BB9F5177F1982CE010196BADFD2
:100A30001093A800D498D6981DB880EF8EB9109264
:100A40007E0110927D0110925F0110925E01109361
:100A50006401109263011092620110926101109280
:100A60006001DC9ADE9AD49AD69898EA9DB98EB93C
:100A70008FE193E0909361018093600184E592E0BF
:100A800090936301809362010F900F90DF91CF915B
:100A90001F9108951F3641F68A81882329F280919B
:100AA000A80098EF980F903718F6182FC1CFEF9243
:100AB000FF920F931F93CF93DF9300D0CDB7DEB794
:100AC0008C017B019A838983FB016081CE010196B1
:100AD00052DF0F5F1F4F1A830983F7016181CE0137
:100AE000019649DFC7010F900F90DF91CF911F91C1
:100AF0000F91FF90EF9008950F931F93CF93DF9383
:100B000000D0CDB7DEB78B019A838983FB0160816A
:100B1000CE01019630DFC8010F900F90DF91CF9189
:100B20001F910F9108951F920F920FB60F921124EB
:100B30002F933F938F939F93AF93BF9380915301D4
:100B400090915401A0915501B091560130915201FC
:100B500026E0230F2D3768F129E8230F0396A11D06
:100B6000B11D209352018093530190935401A0939F
:100B70005501B093560180914E0190914F01A09183
:100B80005001B09151010196A11DB11D80934E01FC
:100B900090934F01A0935001B0935101BF91AF9139
:100BA0009F918F913F912F910F900FBE0F901F90AB
:100BB00018950296A11DB11DD4CF1F920F920FB6AA
:100BC0000F9211242F933F934F935F936F937F93D3
:100BD0008F939F93AF93BF93CF93EF93FF9396B36E
:100BE00080915801C0915C01C923282F2095C22310
:100BF00020915A018223292F20958223C82B90937C
:100C00005801C0FF05C0E0918000F0918100099576
:100C1000C1FF05C0E0918200F09183000995C2FFF9
:100C200005C0E0918600F09187000995C3FF05C0DB
:100C3000E0918400F09185000995FF91EF91CF91AB
:100C4000BF91AF919F918F917F916F915F914F91E4
:100C50003F912F910F900FBE0F901F9018951F92EC
:100C60000F920FB60F9211242F933F934F935F93E0
:100C70006F937F938F939F93AF93BF93CF93EF9394
:100C8000FF9380914D01823009F474C0B8F4882339
:100C900089F1813009F454C0FF91EF91CF91BF9158
:100CA000AF919F918F917F916F915F914F913F9104
:100CB0002F910F900FBE0F901F901895843009F45C
:100CC0005FC0B8F1853041F784E080934D019FB15A
:100CD00080917D018F5F8F7020917E01281709F42C
:100CE00073C080937D01E0917D01F0E0E655FF4FF8
:100CF000908319C08FB1882331F08FB18695909180
:100D00006401891319C0789B12C0E0916201F091CF
:100D10006301309729F080915E0180935F0109950E
:100D200081E080934D011FB8D69A8EE721C084E000
:100D3000F8CF8FB1882321F0D69888EA8DB917C0F3
:100D400080915F0190915E019817B1F380915F01EE
:100D50008F5F8F7080935F01E0915F01F0E0E65458
:100D6000FF4F80818FB982E080934D01D69A80E752
:100D70008EB992CF83E080934D01D6981FB8D5CF1E
:100D800085E080934D01D69880E78EB9E0916001AF
:100D9000F0916101309709F47FCFC0917D0180917E
:100DA0007E018C1709F478CF8EB18E7AE9F3759BAA
:100DB00073CF90917E0180917D01891B8F7090E0AF
:100DC0000995C0937E0168CFD698AFCF1F920F923E
:100DD0000FB60F9211242F933F934F935F936F930E
:100DE0007F938F939F93AF93BF93CF93EF93FF9393
:100DF000E0916001F0916101309781F0C0917D0137
:100E000080917E018C1751F090917E0180917D013F
:100E1000891B8F7090E00995C0937E0110924D015F
:100E2000D698CC9B18C0CE9BFCCF88EA8DB980EFBA
:100E30008EB9FF91EF91CF91BF91AF919F918F911B
:100E40007F916F915F914F913F912F910F900FBEC6
:100E50000F901F90189588EFE9CFCF93DF9300D0C4
:100E6000CDB7DEB781B781BF789480B7826080BF8D
:100E700080B7816080BF83B7887F836083BF7894A9
:100E800089B7816089BF8EB5887F8EBD8FB581603F
:100E90008FBD8FB58D7F8FBD8EB5877F8EBD8EB593
:100EA0008F7E8EBD8EB583608EBD86B18877866855
:100EB00086B9379A62E089E092D962E08AE08FD9F8
:100EC00062E081E08CD962E082E089D961E087E06C
:100ED00086D990E080E0BFD961E083E080D960E00E
:100EE00083E04ED962E088E07AD960E080E077D98B
:100EF00016B884E885BF80E885BF85B7877E85BF43
:100F000085B7806285BF68EA70E090E080E02ADD06
:100F10008091A8008F3F41F48FE68093A80068EA93
:100F200070E090E080E0E8DD8091A8008850803794
:100F300040F08FE68093A80068EA70E090E080E0DF
:100F4000DBDD6DE870E081E090E00CDD80918D00EC
:100F50008F3F41F483E080938D006DE870E081E085
:100F600090E0CADD63EA70E083E090E0FBDC809112
:100F7000A3008F3F39F41092A30063EA70E083E08E
:100F800090E0BADD64EA70E084E090E0D9DC809122
:100F9000A4009091A500019649F41092A50010922A
:100FA000A40064EA70E084E090E081DD66EA70E02D
:100FB00086E090E0C5DC8091A6009091A7000196A4
:100FC00049F41092A7001092A60066EA70E084E04F
:100FD00090E06DDD6EE870E088E090E0B1DC80913B
:100FE0008E0090918F00019659F48AE090E09093E2
:100FF0008F0080938E006EE870E088E090E057DD0F
:1010000062EA70E082E090E0ADDC8091A400909113
:10101000A500892B09F49AC090E080E01CD9D9DBA7
:101020008BE791E0909387008093860080915C012C
:10103000846080935C0180915A01846080935A019E
:1010400086B38093580180B5846080BD8BB7806281
:101050008BBFC1DC8091A80080935D0161E083E0DB
:101060008FD8FF24F3940FEF10E09091A8008091A7
:101070005D01981741F08091A80080935D01F9828D
:10108000CE0101968FDC80918C0082FF04C080919C
:101090008D0081FD5FC080918C0081FF04C0809134
:1010A0008D0080FD57C060E080E099D88091880075
:1010B0008130D1F58091A8008850BE016E5F7F4FCE
:1010C00090E0803708F04DC080E04CDC8091A800B3
:1010D0009A81891741F08983BE016F5F7F4F90E04D
:1010E00080E00ADD78DC6DE870E081E090E004DD0E
:1010F00062EA70E082E090E0FFDC63EA70E083E0A7
:1011000090E0FADC64EA70E084E090E0D0DC66EA2B
:1011100070E086E090E0CBDC6EE870E088E090E084
:10112000C6DC57DB1092880085B7806285BF889542
:1011300085B78F7D85BF8091670190916801892B6C
:1011400099F48091650190E086D88FCF8091A200BC
:1011500090E064CF61E080E042D860E080E010D8A9
:10116000A5CF80E0FFDBBFCFB0D880906F0190901B
:101170007001A0907101B0907201AB01BC014819DF
:1011800059096A097B098091670190916801B0E073
:10119000A0E084179507A607B70708F45AC095D8AA
:1011A00080906B0190906C01A0906D01B0906E01E9
:1011B000681979098A099B098090750190907601D8
:1011C000A0907701B0907801681579058A059B0594
:1011D00008F44BCF20917B0130917C018091790103
:1011E00090917A01820F931F90937A0180937901F5
:1011F0004091650150916601451B550B48175907F1
:101200003CF431952195310930937C0120937B0189
:1012100097FF04C010927A011092790180917901B0
:1012200090917A018F3F910529F024F010937A0173
:10123000009379018091790190917A010CD845D879
:1012400060936B0170936C0180936D0190936E01BC
:101250000CCF3BD880906F0190907001A0907101ED
:10126000B0907201AB01BC01481959096A097B09A8
:1012700080916701909168012091690130916A0124
:10128000820F931FB0E0A0E084179507A607B70769
:1012900018F090E080E058CF18D860936F017093F9
:1012A000700180937101909372010FD860936B016C
:1012B00070936C0180936D0190936E018091660133
:1012C00090E090937C0180937B0110927A011092C0
:1012D0007901CBCEEEE0F1E014AE15AE16AEEFEC38
:1012E000F0E014AE15AE16AEE5E6F1E01082118224
:1012F0001382128215821482158A148A0895E19944
:10130000FECF9FBB8EBBE09A99278DB30895262F01
:10131000E199FECF1CBA9FBB8EBB2DBB0FB6F894D4
:10132000E29AE19A0FBE019608955058BB27AA276A
:101330000ED089C17AD130F07FD120F031F49F3FB7
:1013400011F41EF46FC10EF4E095E7FB3CC1E92FE8
:101350008BD180F3BA17620773078407950718F0DB
:1013600071F49EF5BAC10EF4E0950B2EBA2FA02DA4
:101370000B01B90190010C01CA01A0011124FF2742
:10138000591B99F0593F50F4503E68F11A16F0403D
:10139000A22F232F342F4427585FF3CF469537953C
:1013A0002795A795F0405395C9F77EF41F16BA0B01
:1013B000620B730B840BBAF09150A1F0FF0FBB1FAF
:1013C000661F771F881FC2F70EC0BA0F621F731FF8
:1013D000841F48F4879577956795B795F7959E3F55
:1013E00008F0B3CF9395880F08F09927EE0F9795E3
:1013F000879508955BD180F09F3740F491110EF4EA
:101400006DC160E070E080E89FE3089526F01B1650
:10141000611D711D811DDDC0F7C00CD014C10CD140
:1014200040F003D130F021F45F3F19F0CCC05111EE
:1014300055C1F8C019D198F39923C9F35523B1F3D5
:10144000951B550BBB27AA2762177307840738F033
:101450009F5F5F4F220F331F441FAA1FA9F333D092
:101460000E2E3AF0E0E830D091505040E695001C46
:10147000CAF729D0FE2F27D0660F771F881FBB1F02
:10148000261737074807AB07B0E809F0BB0B802DDC
:10149000BF01FF2793585F4F2AF09E3F510568F028
:1014A00092C01CC15F3FECF3983EDCF386957795C4
:1014B0006795B795F7959F5FC9F7880F911D96952A
:1014C000879597F90895E1E0660F771F881FBB1F86
:1014D000621773078407BA0720F0621B730B840B33
:1014E000BA0BEE1F88F7E095089504D06894B11107
:1014F000F5C00895C1D088F09F5790F0B92F992773
:10150000B751A0F0D1F0660F771F881F991F1AF00E
:10151000BA95C9F712C0B13081F0DFD0B1E00895BB
:10152000DCC0672F782F8827B85F39F0B93FCCF33C
:10153000869577956795B395D9F73EF49095809504
:10154000709561957F4F8F4F9F4F0895E89409C024
:1015500097FB3EF490958095709561957F4F8F4FE6
:101560009F4F9923A9F0F92F96E9BB279395F695FC
:10157000879577956795B795F111F8CFFAF4BB0F7A
:1015800011F460FF1BC06F5F7F4F8F4F9F4F16C0DE
:10159000882311F096E911C0772321F09EE8872F68
:1015A000762F05C0662371F096E8862F70E060E024
:1015B0002AF09A95660F771F881FDAF7880F96959D
:1015C000879597F9089597F99F6780E870E060E044
:1015D0000895882371F4772321F09850872B762F74
:1015E00007C0662311F499270DC09051862B70E037
:1015F00060E02AF09A95660F771F881FDAF7880F48
:101600009695879597F908959F3F31F0915020F472
:10161000879577956795B795880F911D96958795CE
:1016200097F908959FEF80EC089500240A94161608
:10163000170618060906089500240A9412161306C0
:10164000140605060895092E0394000C11F488234E
:1016500052F0BB0F40F4BF2B11F460FF04C06F5F6A
:101660007F4F8F4F9F4F089557FD9058440F551F40
:1016700059F05F3F71F04795880F97FB991F61F014
:101680009F3F79F087950895121613061406551F8B
:10169000F2CF4695F1DF08C0161617061806991FF7
:1016A000F1CF86957105610508940895E5DFA0F0F6
:1016B000BEE7B91788F4BB279F3860F41616B11D32
:1016C000672F782F8827985FF7CF8695779567954E
:1016D000B11D93959639C8F30895E894BB27662702
:1016E0007727CB0197F9089503D008F48FEF089579
:1016F000990F0008550FAA0BE0E8FEEF1616170623
:10170000E807F907C0F012161306E407F50798F08A
:10171000621B730B840B950B39F40A2661F0232BA3
:10172000242B252B21F408950A2609F4A140A6951F
:101730008FEF811D811D089597FB072E16F40094ED
:1017400006D077FD08D00BD007FC05D03EF490956D
:1017500081959F4F0895709561957F4F0895AA1BBD
:10176000BB1B51E107C0AA1FBB1FA617B70710F08C
:10177000A61BB70B881F991F5A95A9F780959095BE
:10178000BC01CD010895EE0FFF1F0590F491E02DEF
:061790000994F894FFCF5C
:101796000000000703FFFF0100000000000000003A
:1017A600010000000000000000FFFFFFFFFFFFFF39
:1017B6008100810081008100015D030100030A00B0
:1017C600020000000000000000020000000000000F
:0A17D60000000001000000006F0099
:00000001FF
