:100000002CC050C04FC081C54DC04CC04BC04AC071
:1000100049C048C047C02FC545C044C043C07EC684
:10002000C6C500003A00370000003B003800000061
:100030003900360001010101010101010202020241
:1000400001020408102040800402010800000000A2
:100050000004030201000000FD0811241FBECFE5CB
:10006000D2E0DEBFCDBF10E0A0E6B0E0ECEBF6E101
:1000700002C005900D92AA3AB107D9F721E0AAEA89
:10008000B0E001C01D92A038B207E1F710E0CDE268
:10009000D0E003C02197FE0109DBCC32D107D1F7B4
:1000A00084D60ACBADCF80917F01882339F020918F
:1000B0007E0182131CC08FEF9FEF089590917D0108
:1000C00080917C01891B8F70B1F390917D018091AB
:1000D0007C019817E1F3E0917D01EF5FEF70E09311
:1000E0007D01F0E0E655FF4F808190E00895E22F1A
:1000F000F0E0E655FF4F808190E02F5F20937E0176
:100100000895813021F480B78F7780BF08958230C1
:1001100019F480B78F7DF9CF833021F48FB58F77B5
:100120008FBD08958430E9F78FB58F7DF9CFCF93D8
:10013000DF93282F30E0F901E45BFF4F8491F90150
:10014000E05CFF4FD491F901EC5CFF4FC491CC23EC
:1001500099F08111D6DFEC2FF0E0EE0FFF1FE25D8A
:10016000FF4FA591B491EC91ED2381E090E009F46B
:1001700080E0DF91CF91089580E090E0FACFCF93B7
:1001800089E0D5DFCEE6892B09F0CFE68AE0CFDF24
:10019000892B09F4CD7F81E0CADF892B09F4CB7F5D
:1001A00082E0C5DF892B79F5C77FC093A800D4987A
:1001B000D6981DB880EF8EB910927D0110927C0107
:1001C00010925E0110925D01C09363011092620172
:1001D000109261011092600110925F01DC9ADE9A28
:1001E000D49AD69898EA9DB98EB98DE693E090930B
:1001F000600180935F0182EA92E0909362018093B4
:100200006101CF910895CF3681F68091A80098EFD3
:10021000980F903750F6C82FC8CF1F93CF93DF9316
:10022000282F30E0F901E45BFF4F8491F901E05C95
:10023000FF4FD491F901EC5CFF4FC491CC23A1F0A6
:10024000162F81115EDFEC2FF0E0EE0FFF1FE85D4F
:10025000FF4FA591B4918FB711110AC0F894EC919A
:10026000D095DE23DC938FBFDF91CF911F9108954E
:10027000F894EC91DE2BF6CFCF93DF9390E0FC0166
:10028000E05CFF4F24918C5C9F4FFC01849188239C
:10029000C9F090E0880F991FFC01EE5DFF4FA5911A
:1002A000B491FC01E85DFF4FC591D49161110DC07F
:1002B0009FB7F8948C91209582238C938881282372
:1002C00028839FBFDF91CF910895623051F49FB78B
:1002D000F8943C91822F809583238C93E8812E2B78
:1002E000EFCF8FB7F894EC912E2B2C938FBFEACFE2
:1002F000CF93DF93EC0161E087E0BEDF1C161D06A3
:100300002CF060E087E0DF91CF9187CFCF3FD10520
:1003100014F061E0F7CFE3E5F0E0E491E13039F487
:1003200080B7806880BFC6BFDF91CF910895E2306B
:1003300029F480B7806280BFCCBFF6CFE33031F4C0
:100340008FB580688FBDDBBDCABDEECFE43031F420
:100350008FB580628FBDD9BDC8BDE6CFC038D1058D
:10036000C4F6CFCF2FB7F8946091590170915A011C
:1003700080915B0190915C012FBF08950895FC016D
:1003800086AD811104C081E024AD95AD291380E0D4
:100390000895CF92DF92EF92FF920F931F93E2DFC7
:1003A0000091CB001091CC002091CD003091CE0077
:1003B000E0918E00F0918F00AB01BC01401B510B0E
:1003C000620B730BCF01B0E0A0E0481759076A0732
:1003D0007B0708F4B0C0C6DF6093CB007093CC00FD
:1003E0008093CD009093CE0080918C0081608093AB
:1003F0008C0088E09CDE21E0892B09F020E08091D0
:100400008C0020FB82F980938C00ACDF20918E0061
:1004100030918F006B017C01C21AD30AE108F10808
:100420009701860180914C01882349F080914B010E
:1004300090E001966FE070E012D980934B018091BB
:100440004A0190E0FC01EE0FFF1FEE0FFF1FE25F7D
:10045000FE4F008311832283338301966FE070E0A7
:10046000FED880934A0190914B01981303C081E01C
:1004700080934C018EE091E082DF9091900080FBB0
:1004800091F99093900090914C018091900090FB95
:1004900082F98093900088E04ADE019709F04BC012
:1004A00080918C00826080938C005CDF20918E00B4
:1004B00030918F006B017C01C21AD30AE108F10868
:1004C0009701860180910D01882349F080910C01EC
:1004D00090E001966FE070E0C2D880930C018091AB
:1004E0000B0190E0FC01EE0FFF1FEE0FFF1FE15329
:1004F000FF4F008311832283338301966FE070E006
:10050000AED880930B0190910C01981303C081E049
:1005100080930D018FEC90E032DF9091990080FB89
:1005200091F99093990090910D018091990090FB21
:1005300082F9809399001F910F91FF90EF90DF90C7
:10054000CF900895CF92DF92EF92FF9288E0EFDD97
:1005500021E0892B09F020E080918C0020FB82F9BA
:1005600080938C00FFDEE0914B01F0E0EE0FFF1F67
:10057000EE0FFF1FE25FFE4FC080D180E280F3806C
:100580006C197D098E099F09609395007093960000
:100590008093970090939800E5DE6B017C018EE0DC
:1005A00091E0EDDE81118CC080914A0190E00E96C1
:1005B0006FE070E054D8FC01EE0FFF1FEE0FFF1F3D
:1005C000E25FFE4F80819181A281B381C81AD90A6E
:1005D000EA0AFB0AC0929100D0929200E092930046
:1005E000F0929400BFDEE0910C01F0E0EE0FFF1FEF
:1005F000EE0FFF1FE153FF4FC080D180E280F380F8
:100600006C197D098E099F0960939E0070939F006D
:100610008093A0009093A100A5DE6B017C018FEC7C
:1006200090E0ADDE811150C080910B0190E00E96FC
:100630006FE070E014D8FC01EE0FFF1FEE0FFF1FFC
:10064000E153FF4F80819181A281B381C81AD90AF9
:10065000EA0AFB0AC0929A00D0929B00E0929C00AA
:10066000F0929D008091CA0040E250E0481B510981
:100670006091CA0070E030E020E04217530741F17A
:1006800090915D0180915E019F5F891B8F70A9F041
:1006900080915D018F5F8F7090915E018917E1F30A
:1006A000E82FF0E0E654FF4FDB01A20FB31FA7577E
:1006B000BF4F9C91908380935D012F5F3F4FDDCFB3
:1006C00080E090E0DC0182CF80E090E0DC01BECFF2
:1006D000FF90EF90DF90CF900895FF920F931F93BC
:1006E000CF93DF938C01DFDC8093CA00F12C0150A3
:1006F0001109CF2DD0E0C017D10784F5D4DC2091AB
:10070000CA002C0F3D2F311D2032310528F5A09154
:10071000CA00E091CA00EC0FFD2FF11DE757FF4F13
:10072000AC0FBD2FB11DA05ABF4F9C919095208159
:10073000922390839091CA00E091CA00EC0FFD2FA4
:10074000F11DE757FF4FC90FD11DC05ADF4F9881E8
:1007500098238081892B8083F394CBCF8091900064
:1007600080FF3AC010924C0180914B0190914A0158
:10077000981739F090E001966FE070E070D78093A1
:100780004B01E0914B01F0E0EE0FFF1FEE0FFF1F5A
:10079000E25FFE4F80819181A281B38180939500B9
:1007A00090939600A0939700B093980090914C017D
:1007B0008091900090FB82F9809390008EE091E010
:1007C000DEDD9091900080FB91F9909390008091F4
:1007D00090008E7F809390008091990080FF3BC0B5
:1007E00010920D0120910C01822F90E030910B01AD
:1007F000321731F001966FE070E031D780930C0131
:10080000E0910C01F0E0EE0FFF1FEE0FFF1FE15330
:10081000FF4F80819181A281B38180939E0090934C
:100820009F00A093A000B093A10090910D01809132
:10083000990090FB82F9809399008FEC90E09FDD06
:100840009091990080FB91F9909399008091990083
:100850008E7F8093990081E080938800DF91CF9113
:100860001F910F91FF9008958F929F92AF92BF9228
:10087000CF92DF92EF92FF920F931F93CF93DF936C
:100880006091A20090916401C091A30080916501E4
:10089000C8139BC081E0691301C080E00091A400EF
:1008A0001091A5002091660130916701021713078E
:1008B00009F081E02091A6003091A70040916801E5
:1008C000509169012417350719F4882309F470C081
:1008D00060936401C0936501109367010093660102
:1008E0003093690120936801D0E070E090E080E0EF
:1008F000C0D56B017C01BE010D2E000C880B990B3D
:10090000BAD59B01AC01C701B6011AD59B01AC0158
:10091000A0D403D582D56B017093730160937201EB
:10092000B80190E080E0A5D54B015C01B60190E0F4
:1009300080E09FD59B01AC01C501B40101D56B01DD
:100940007C0120E030E0A90162D620E030E040E008
:100950005FE387FD3CC0C701B6017BD459D56093E6
:100960007401709375018093760190937701D09311
:100970007B01C0937A01F6DC60936E0170936F0186
:100980008093700190937101EDDC60936A01709324
:100990006B0180936C0190936D018091650190E0F3
:1009A00090937B0180937A011092790110927801E3
:1009B000DF91CF911F910F91FF90EF90DF90CF903B
:1009C000BF90AF909F908F90089581E067CFC7014F
:1009D000B6013ED4C3CFFF920F931F93CF93DF9303
:1009E0008C01EB01F8801ED4F81619F06F2DC801A8
:1009F00021D4CE01DF91CF911F910F91FF900895E7
:100A0000FF920F931F93CF93DF93EC018B01FB01B8
:100A1000F08008D4F81619F06F2DCE010BD4F80130
:100A2000F1802196CE01FED3F81619F06F2DCE017C
:100A300001D4C801DF91CF911F910F91FF900895CC
:100A40000F931F93CF93DF938C01EB01EBD388833C
:100A5000C8010196E7D38983CE01DF91CF911F9121
:100A60000F910895CF93DF93EB01DCD38883CE0100
:100A7000DF91CF9108951F920F920FB60F9211241C
:100A80002F933F938F939F93AF93BF93809159017F
:100A900090915A01A0915B01B0915C013091580195
:100AA00026E0230F2D3768F129E8230F0396A11DB7
:100AB000B11D209358018093590190935A01A0933E
:100AC0005B01B0935C018091540190915501A0911C
:100AD0005601B09157010196A11DB11D809354019B
:100AE00090935501A0935601B0935701BF91AF91D8
:100AF0009F918F913F912F910F900FBE0F901F905C
:100B000018950296A11DB11DD4CF1F920F920FB65A
:100B10000F9211242F933F934F935F936F937F9383
:100B20008F939F93AF93BF93CF93EF93FF9396B31E
:100B300080914F01C0915301C923282F2095C223D2
:100B4000209151018223292F20958223C82B909335
:100B50004F01C0FF05C0E0918000F0918100099530
:100B6000C1FF05C0E0918200F09183000995C2FFAA
:100B700005C0E0918600F09187000995C3FF05C08C
:100B8000E0918400F09185000995FF91EF91CF915C
:100B9000BF91AF919F918F917F916F915F914F9195
:100BA0003F912F910F900FBE0F901F9018951F929D
:100BB0000F920FB60F9211242F933F934F935F9391
:100BC0006F937F938F939F93AF93BF93CF93EF9345
:100BD000FF9380914D01823009F474C0B8F48823EA
:100BE00089F1813009F454C0FF91EF91CF91BF9109
:100BF000AF919F918F917F916F915F914F913F91B5
:100C00002F910F900FBE0F901F901895843009F40C
:100C10005FC0B8F1853041F784E080934D019FB10A
:100C200080917C018F5F8F7020917D01281709F4DE
:100C300073C080937C01E0917C01F0E0E655FF4FAA
:100C4000908319C08FB1882331F08FB18695909130
:100C50006301891319C0789B12C0E0916101F09182
:100C60006201309729F080915D0180935E010995C2
:100C700081E080934D011FB8D69A8EE721C084E0B1
:100C8000F8CF8FB1882321F0D69888EA8DB917C0A4
:100C900080915E0190915D019817B1F380915E01A2
:100CA0008F5F8F7080935E01E0915E01F0E0E6540B
:100CB000FF4F80818FB982E080934D01D69A80E703
:100CC0008EB992CF83E080934D01D6981FB8D5CFCF
:100CD00085E080934D01D69880E78EB9E0915F0161
:100CE000F0916001309709F47FCFC0917C01809131
:100CF0007D018C1709F478CF8EB18E7AE9F3759B5C
:100D000073CF90917D0180917C01891B8F7090E061
:100D10000995C0937D0168CFD698AFCF1F920F92EF
:100D20000FB60F9211242F933F934F935F936F93BE
:100D30007F938F939F93AF93BF93CF93EF93FF9343
:100D4000E0915F01F0916001309781F0C0917C01EA
:100D500080917D018C1751F090917D0180917C01F3
:100D6000891B8F7090E00995C0937D0110924D0111
:100D7000D698CC9B18C0CE9BFCCF88EA8DB980EF6B
:100D80008EB9FF91EF91CF91BF91AF919F918F91CC
:100D90007F916F915F914F913F912F910F900FBE77
:100DA0000F901F90189588EFE9CFCF93DF9300D075
:100DB000CDB7DEB781B781BF80B7826080BF80B713
:100DC000816080BF83B7887F836083BF789489B751
:100DD000816089BF8EB5887F8EBD8FB581608FBDE4
:100DE0008FB58D7F8FBD8EB5877F8EBD8EB58F7E83
:100DF0008EBD8EB583608EBD86B18877866886B9D4
:100E0000379A62E089E038DA62E08AE035DA62E057
:100E100081E032DA62E082E02FDA61E087E02CDA0A
:100E200090E080E065DA61E083E026DA60E083E06C
:100E3000F4D962E088E020DA60E080E01DDA16B8DC
:100E400084E885BF80E885BF85B7877E85BF85B785
:100E5000806285BF68EA70E090E080E003DE809108
:100E6000A8008F3F41F48FE68093A80068EA70E005
:100E700090E080E0B0DD8091A8008850803740F09D
:100E80008FE68093A80068EA70E090E080E0A3DD40
:100E90006DE870E081E090E0E5DD80918D008F3FAE
:100EA00041F483E080938D006DE870E081E090E094
:100EB00092DD63EA70E083E090E0D4DD8091A300EE
:100EC0008F3F39F41092A30063EA70E083E090E072
:100ED00082DD64EA70E084E090E0B2DD8091A400FD
:100EE0009091A500019649F41092A5001092A400DB
:100EF00064EA70E084E090E083DD66EA70E086E01A
:100F000090E09EDD8091A6009091A700019649F4A3
:100F10001092A7001092A60066EA70E084E090E0CC
:100F20006FDD6EE870E088E090E08ADD80918E00F1
:100F300090918F00019659F48AE090E090938F0091
:100F400080938E006EE870E088E090E059DD62EA00
:100F500070E082E090E086DD8091A4009091A50091
:100F6000892B09F486C090E080E0C2D97DDC89EC51
:100F700091E0909387008093860080915301846074
:100F8000809353018091510184608093510186B315
:100F900080934F0180B5846080BD8BB780628BBF2A
:100FA000EED861E083E039D90FEF10E080918C003A
:100FB00082FF04C080918D0081FD5FC080918C0014
:100FC00081FF04C080918D0080FD57C060E080E00B
:100FD00053D9809188008130D1F58091A800885044
:100FE000BE016E5F7F4F90E0803708F04DC080E01B
:100FF00039DD8091A8009A81891741F08983BE016B
:101000006F5F7F4F90E080E0E6DCB9D86DE870E07C
:1010100081E090E0E0DC62EA70E082E090E0DBDC1E
:1010200063EA70E083E090E0D6DC64EA70E084E09C
:1010300090E0E6DC66EA70E086E090E0E1DC6EE8F5
:1010400070E088E090E0DCDC0FDC1092880085B76F
:10105000806285BF889585B78F7D85BF8091660149
:1010600090916701892B99F48091640190E040D9B7
:101070009DCF8091A20090E078CF61E080E0FCD825
:1010800060E080E0CAD8A5CF80E0ECDCBFCF6AD9B1
:10109000C0906E01D0906F01E0907001F0907101EE
:1010A000AB01BC014C195D096E097F098091660195
:1010B00090916701B0E0A0E084179507A607B707F5
:1010C00008F45AC04FD9C0906A01D0906B01E090EB
:1010D0006C01F0906D016C197D098E099F09C0901B
:1010E0007401D0907501E0907601F09077016C1555
:1010F0007D058E059F0508F459CF20917A01309126
:101100007B018091780190917901820F931F9093D8
:101110007901809378014091640150916501451BEC
:10112000550B481759073CF43195219531093093F7
:101130007B0120937A0197FF04C0109279011092ED
:10114000780180917801909179018F3F910529F084
:1011500024F01093790100937801809178019091A7
:101160007901C6D8FFD860936A0170936B018093B0
:101170006C0190936D011ACFF5D8C0906E01D0909C
:101180006F01E0907001F0907101AB01BC014C194E
:101190005D096E097F098091660190916701209138
:1011A000680130916901820F931FB0E0A0E08417BD
:1011B0009507A607B70718F090E080E058CFD2D87F
:1011C00060936E0170936F01809370019093710131
:1011D000C9D860936A0170936B0180936C019093FE
:1011E0006D018091650190E090937B0180937A017D
:1011F0001092790110927801D9CEEEE0F1E014AEB0
:1012000015AE16AEEFECF0E014AE15AE16AEE4E699
:10121000F1E0108211821382128215821482158AE3
:10122000148A0895E199FECF9FBB8EBBE09A99275F
:101230008DB30895262FE199FECF1CBA9FBB8EBBBC
:101240002DBB0FB6F894E29AE19A0FBE019608956D
:101250005058BB27AA270ED089C17AD130F07FD150
:1012600020F031F49F3F11F41EF46FC10EF4E095AD
:10127000E7FB3CC1E92F8BD180F3BA1762077307F4
:101280008407950718F071F49EF5BAC10EF4E09545
:101290000B2EBA2FA02D0B01B90190010C01CA0130
:1012A000A0011124FF27591B99F0593F50F4503EDB
:1012B00068F11A16F040A22F232F342F4427585FCD
:1012C000F3CF469537952795A795F0405395C9F7E5
:1012D0007EF41F16BA0B620B730B840BBAF091509D
:1012E000A1F0FF0FBB1F661F771F881FC2F70EC03C
:1012F000BA0F621F731F841F48F48795779567950F
:10130000B795F7959E3F08F0B3CF9395880F08F0F7
:101310009927EE0F9795879508955BD180F09F37B9
:1013200040F491110EF46DC160E070E080E89FE33D
:10133000089526F01B16611D711D811DDDC0F7C0CB
:101340000CD014C10CD140F003D130F021F45F3F38
:1013500019F0CCC0511155C1F8C019D198F3992397
:10136000C9F35523B1F3951B550BBB27AA27621769
:101370007307840738F09F5F5F4F220F331F441FAE
:10138000AA1FA9F333D00E2E3AF0E0E830D09150E6
:101390005040E695001CCAF729D0FE2F27D0660FD3
:1013A000771F881FBB1F261737074807AB07B0E812
:1013B00009F0BB0B802DBF01FF2793585F4F2AF028
:1013C0009E3F510568F092C01CC15F3FECF3983E10
:1013D000DCF3869577956795B795F7959F5FC9F785
:1013E000880F911D9695879597F90895E1E0660F0E
:1013F000771F881FBB1F621773078407BA0720F087
:10140000621B730B840BBA0BEE1F88F7E0950895EF
:1014100004D06894B111F5C00895C1D088F09F57E9
:1014200090F0B92F9927B751A0F0D1F0660F771F30
:10143000881F991F1AF0BA95C9F712C0B13081F010
:10144000DFD0B1E00895DCC0672F782F8827B85F20
:1014500039F0B93FCCF3869577956795B395D9F771
:101460003EF490958095709561957F4F8F4F9F4F7B
:101470000895E89409C097FB3EF490958095709587
:1014800061957F4F8F4F9F4F9923A9F0F92F96E9D0
:10149000BB279395F695879577956795B795F11145
:1014A000F8CFFAF4BB0F11F460FF1BC06F5F7F4FE2
:1014B0008F4F9F4F16C0882311F096E911C07723F4
:1014C00021F09EE8872F762F05C0662371F096E8FD
:1014D000862F70E060E02AF09A95660F771F881FCC
:1014E000DAF7880F9695879597F9089597F99F678A
:1014F00080E870E060E00895882371F4772321F09C
:101500009850872B762F07C0662311F499270DC0BA
:101510009051862B70E060E02AF09A95660F771F55
:10152000881FDAF7880F9695879597F908959F3F5A
:1015300031F0915020F4879577956795B795880F8E
:10154000911D9695879597F908959FEF80EC0895E2
:1015500000240A9416161706180609060895002492
:101560000A9412161306140605060895092E03940C
:10157000000C11F4882352F0BB0F40F4BF2B11F480
:1015800060FF04C06F5F7F4F8F4F9F4F089557FDDF
:101590009058440F551F59F05F3F71F04795880FE1
:1015A00097FB991F61F09F3F79F087950895121678
:1015B00013061406551FF2CF4695F1DF08C0161624
:1015C00017061806991FF1CF8695710561050894D5
:1015D0000895E5DFA0F0BEE7B91788F4BB279F3870
:1015E00060F41616B11D672F782F8827985FF7CF04
:1015F000869577956795B11D93959639C8F30895AB
:10160000E894BB2766277727CB0197F9089503D085
:1016100008F48FEF0895990F0008550FAA0BE0E822
:10162000FEEF16161706E807F907C0F012161306A4
:10163000E407F50798F0621B730B840B950B39F4E4
:101640000A2661F0232B242B252B21F408950A264A
:1016500009F4A140A6958FEF811D811D089597FB88
:10166000072E16F4009406D077FD08D00BD007FCA7
:1016700005D03EF4909581959F4F089570956195A2
:101680007F4F0895AA1BBB1B51E107C0AA1FBB1FB8
:10169000A617B70710F0A61BB70B881F991F5A95FE
:1016A000A9F780959095BC01CD010895EE0FFF1F1D
:0C16B0000590F491E02D0994F894FFCF10
:1016BC000000000703FFFF04000000000000000012
:1016CC00040000000000000000FFFFFFFFFFFFFF11
:1016DC00BE01BE01BE01BE01015D010100030A0095
:1016EC0002000000000000000002000000000000EA
:0A16FC0000000001000000006F0074
:00000001FF
